{
  "_format": "hh-sol-artifact-1",
  "contractName": "StepGoalEscrow",
  "sourceName": "contracts/StepGoalEscrow.sol",
  "abi": [
    {
      "inputs": [
        {
          "internalType": "address",
          "name": "_oracle",
          "type": "address"
        },
        {
          "internalType": "address",
          "name": "_pyth",
          "type": "address"
        },
        {
          "internalType": "bytes32",
          "name": "_hbarUsdPriceId",
          "type": "bytes32"
        }
      ],
      "stateMutability": "nonpayable",
      "type": "constructor"
    },
    {
      "anonymous": false,
      "inputs": [
        {
          "indexed": false,
          "internalType": "string",
          "name": "message",
          "type": "string"
        }
      ],
      "name": "DebugString",
      "type": "event"
    },
    {
      "anonymous": false,
      "inputs": [
        {
          "indexed": false,
          "internalType": "string",
          "name": "message",
          "type": "string"
        },
        {
          "indexed": false,
          "internalType": "uint256",
          "name": "value",
          "type": "uint256"
        }
      ],
      "name": "DebugUint",
      "type": "event"
    },
    {
      "anonymous": false,
      "inputs": [
        {
          "indexed": true,
          "internalType": "address",
          "name": "user",
          "type": "address"
        },
        {
          "indexed": false,
          "internalType": "uint256",
          "name": "amount",
          "type": "uint256"
        },
        {
          "indexed": false,
          "internalType": "uint256",
          "name": "numGoals",
          "type": "uint256"
        }
      ],
      "name": "Deposited",
      "type": "event"
    },
    {
      "anonymous": false,
      "inputs": [
        {
          "indexed": true,
          "internalType": "address",
          "name": "user",
          "type": "address"
        },
        {
          "indexed": false,
          "internalType": "uint256",
          "name": "index",
          "type": "uint256"
        },
        {
          "indexed": false,
          "internalType": "bool",
          "name": "success",
          "type": "bool"
        }
      ],
      "name": "GoalMarked",
      "type": "event"
    },
    {
      "anonymous": false,
      "inputs": [
        {
          "indexed": true,
          "internalType": "address",
          "name": "user",
          "type": "address"
        },
        {
          "indexed": false,
          "internalType": "uint256",
          "name": "hbarAmount",
          "type": "uint256"
        },
        {
          "indexed": false,
          "internalType": "uint256",
          "name": "usdValue",
          "type": "uint256"
        }
      ],
      "name": "Withdrawn",
      "type": "event"
    },
    {
      "inputs": [
        {
          "internalType": "uint256[]",
          "name": "stepGoals",
          "type": "uint256[]"
        }
      ],
      "name": "deposit",
      "outputs": [],
      "stateMutability": "payable",
      "type": "function"
    },
    {
      "inputs": [
        {
          "internalType": "address",
          "name": "",
          "type": "address"
        }
      ],
      "name": "deposits",
      "outputs": [
        {
          "internalType": "uint256",
          "name": "amount",
          "type": "uint256"
        },
        {
          "internalType": "uint256",
          "name": "withdrawn",
          "type": "uint256"
        }
      ],
      "stateMutability": "view",
      "type": "function"
    },
    {
      "inputs": [],
      "name": "hbarUsdPriceId",
      "outputs": [
        {
          "internalType": "bytes32",
          "name": "",
          "type": "bytes32"
        }
      ],
      "stateMutability": "view",
      "type": "function"
    },
    {
      "inputs": [
        {
          "internalType": "address",
          "name": "user",
          "type": "address"
        },
        {
          "internalType": "uint256",
          "name": "index",
          "type": "uint256"
        },
        {
          "internalType": "bool",
          "name": "success",
          "type": "bool"
        }
      ],
      "name": "markGoal",
      "outputs": [],
      "stateMutability": "nonpayable",
      "type": "function"
    },
    {
      "inputs": [],
      "name": "oracle",
      "outputs": [
        {
          "internalType": "address",
          "name": "",
          "type": "address"
        }
      ],
      "stateMutability": "view",
      "type": "function"
    },
    {
      "inputs": [],
      "name": "pyth",
      "outputs": [
        {
          "internalType": "contract IPyth",
          "name": "",
          "type": "address"
        }
      ],
      "stateMutability": "view",
      "type": "function"
    },
    {
      "inputs": [
        {
          "internalType": "bytes[]",
          "name": "priceUpdateData",
          "type": "bytes[]"
        }
      ],
      "name": "updateAndWithdraw",
      "outputs": [],
      "stateMutability": "payable",
      "type": "function"
    },
    {
      "inputs": [],
      "name": "withdrawWithoutOracle",
      "outputs": [],
      "stateMutability": "nonpayable",
      "type": "function"
    }
  ],
  "bytecode": "0x60806040523480156200001157600080fd5b5060405162002ba838038062002ba883398181016040528101906200003791906200016e565b82600160006101000a81548173ffffffffffffffffffffffffffffffffffffffff021916908373ffffffffffffffffffffffffffffffffffffffff16021790555081600260006101000a81548173ffffffffffffffffffffffffffffffffffffffff021916908373ffffffffffffffffffffffffffffffffffffffff16021790555080600381905550505050620001ca565b600080fd5b600073ffffffffffffffffffffffffffffffffffffffff82169050919050565b6000620000fb82620000ce565b9050919050565b6200010d81620000ee565b81146200011957600080fd5b50565b6000815190506200012d8162000102565b92915050565b6000819050919050565b620001488162000133565b81146200015457600080fd5b50565b60008151905062000168816200013d565b92915050565b6000806000606084860312156200018a5762000189620000c9565b5b60006200019a868287016200011c565b9350506020620001ad868287016200011c565b9250506040620001c08682870162000157565b9150509250925092565b6129ce80620001da6000396000f3fe60806040526004361061007b5760003560e01c8063bb71988e1161004e578063bb71988e1461011b578063c006c7a714610137578063f98d06f01461014e578063fc7e286d146101795761007b565b806336fc1504146100805780634a9138c6146100a9578063598b8e71146100d45780637dc0d1d0146100f0575b600080fd5b34801561008c57600080fd5b506100a760048036038101906100a2919061144c565b6101b7565b005b3480156100b557600080fd5b506100be6103dc565b6040516100cb91906114b8565b60405180910390f35b6100ee60048036038101906100e9919061162c565b6103e2565b005b3480156100fc57600080fd5b506101056105f8565b6040516101129190611684565b60405180910390f35b610135600480360381019061013091906116fa565b61061e565b005b34801561014357600080fd5b5061014c610ede565b005b34801561015a57600080fd5b506101636112cb565b60405161017091906117a6565b60405180910390f35b34801561018557600080fd5b506101a0600480360381019061019b91906117c1565b6112f1565b6040516101ae9291906117fd565b60405180910390f35b600160009054906101000a900473ffffffffffffffffffffffffffffffffffffffff1673ffffffffffffffffffffffffffffffffffffffff163373ffffffffffffffffffffffffffffffffffffffff1614610247576040517f08c379a000000000000000000000000000000000000000000000000000000000815260040161023e90611883565b60405180910390fd5b60008060008573ffffffffffffffffffffffffffffffffffffffff1673ffffffffffffffffffffffffffffffffffffffff1681526020019081526020016000209050806002018054905083106102d2576040517f08c379a00000000000000000000000000000000000000000000000000000000081526004016102c9906118ef565b60405180910390fd5b8060020183815481106102e8576102e761190f565b5b906000526020600020906002020160010160009054906101000a900460ff1615610347576040517f08c379a000000000000000000000000000000000000000000000000000000000815260040161033e9061198a565b60405180910390fd5b8181600201848154811061035e5761035d61190f565b5b906000526020600020906002020160010160006101000a81548160ff0219169083151502179055508373ffffffffffffffffffffffffffffffffffffffff167f7c4a18ad12fd3112fe19c1245310ffe0035002bb10eaa1850a592b1318104e9084846040516103ce9291906119b9565b60405180910390a250505050565b60035481565b60003411610425576040517f08c379a000000000000000000000000000000000000000000000000000000000815260040161041c90611a2e565b60405180910390fd5b60008060003373ffffffffffffffffffffffffffffffffffffffff1673ffffffffffffffffffffffffffffffffffffffff16815260200190815260200160002060000154146104a9576040517f08c379a00000000000000000000000000000000000000000000000000000000081526004016104a090611a9a565b60405180910390fd5b60008060003373ffffffffffffffffffffffffffffffffffffffff1673ffffffffffffffffffffffffffffffffffffffff16815260200190815260200160002090503481600001819055506000816001018190555060005b82518110156105a25781600201604051806040016040528085848151811061052c5761052b61190f565b5b602002602001015181526020016000151581525090806001815401808255809150506001900390600052602060002090600202016000909190919091506000820151816000015560208201518160010160006101000a81548160ff02191690831515021790555050508080600101915050610501565b503373ffffffffffffffffffffffffffffffffffffffff167f73a19dd210f1a7f902193214c0ee91dd35ee5b4d920cba8d519eca65a7b488ca3484516040516105ec9291906117fd565b60405180910390a25050565b600160009054906101000a900473ffffffffffffffffffffffffffffffffffffffff1681565b7f20670ef4ff6910e98e7c43650896cc0feeab168b4ca974d0748d31c42706a1e960405161064b90611b06565b60405180910390a16000600260009054906101000a900473ffffffffffffffffffffffffffffffffffffffff1673ffffffffffffffffffffffffffffffffffffffff1663d47eed4584846040518363ffffffff1660e01b81526004016106b2929190611c99565b602060405180830381865afa1580156106cf573d6000803e3d6000fd5b505050506040513d601f19601f820116820180604052508101906106f39190611cd2565b90507f2c78221d853bf45521bf53ad2802eb4470185a3cad34373f42e4639a8fdeb197816040516107249190611d4b565b60405180910390a1600260009054906101000a900473ffffffffffffffffffffffffffffffffffffffff1673ffffffffffffffffffffffffffffffffffffffff1663ef9e5e288285856040518463ffffffff1660e01b815260040161078a929190611c99565b6000604051808303818588803b1580156107a357600080fd5b505af11580156107b7573d6000803e3d6000fd5b50505050507f2c78221d853bf45521bf53ad2802eb4470185a3cad34373f42e4639a8fdeb197838390506040516107ee9190611dc5565b60405180910390a160008060003373ffffffffffffffffffffffffffffffffffffffff1673ffffffffffffffffffffffffffffffffffffffff1681526020019081526020016000209050600081600001541161087f576040517f08c379a000000000000000000000000000000000000000000000000000000000815260040161087690611e3f565b60405180910390fd5b7f2c78221d853bf45521bf53ad2802eb4470185a3cad34373f42e4639a8fdeb19781600001546040516108b29190611eab565b60405180910390a16000816002018054905011610904576040517f08c379a00000000000000000000000000000000000000000000000000000000081526004016108fb90611f25565b60405180910390fd5b6000805b826002018054905081101561096d5782600201818154811061092d5761092c61190f565b5b906000526020600020906002020160010160009054906101000a900460ff161561096057818061095c90611f74565b9250505b8080600101915050610908565b507f2c78221d853bf45521bf53ad2802eb4470185a3cad34373f42e4639a8fdeb1978160405161099d9190612008565b60405180910390a1600082600201805490508284600001546109bf9190612036565b6109c991906120a7565b905060008360010154826109dd91906120d8565b90507f2c78221d853bf45521bf53ad2802eb4470185a3cad34373f42e4639a8fdeb19781604051610a0e9190612158565b60405180910390a160008111610a59576040517f08c379a0000000000000000000000000000000000000000000000000000000008152600401610a50906121d2565b60405180910390fd5b6000600260009054906101000a900473ffffffffffffffffffffffffffffffffffffffff1673ffffffffffffffffffffffffffffffffffffffff166396834ad36003546040518263ffffffff1660e01b8152600401610ab891906114b8565b608060405180830381865afa158015610ad5573d6000803e3d6000fd5b505050506040513d601f19601f82011682018060405250810190610af99190612321565b90507f2c78221d853bf45521bf53ad2802eb4470185a3cad34373f42e4639a8fdeb197816000015160070b604051610b31919061239a565b60405180910390a17f2c78221d853bf45521bf53ad2802eb4470185a3cad34373f42e4639a8fdeb197816040015160030b604051610b6f9190612414565b60405180910390a16000816000015160070b9050600080836040015160030b12610b9d578260400151610bac565b8260400151610bab90612442565b5b63ffffffff169050600081600a610bc391906125bd565b8386610bcf9190612036565b610bd991906120a7565b90507f2c78221d853bf45521bf53ad2802eb4470185a3cad34373f42e4639a8fdeb19781604051610c0a9190612654565b60405180910390a184886001016000828254610c269190612682565b9250508190555060003373ffffffffffffffffffffffffffffffffffffffff1686604051610c53906126e7565b60006040518083038185875af1925050503d8060008114610c90576040519150601f19603f3d011682016040523d82523d6000602084013e610c95565b606091505b5050905080610cd9576040517f08c379a0000000000000000000000000000000000000000000000000000000008152600401610cd090612748565b60405180910390fd5b3373ffffffffffffffffffffffffffffffffffffffff167f92ccf450a286a957af52509bc1c9939d1a6a481783e142e41e2499f0bb66ebc68784604051610d219291906117fd565b60405180910390a260008a34610d3791906120d8565b90506000811115610ecf5760003373ffffffffffffffffffffffffffffffffffffffff1682604051610d68906126e7565b60006040518083038185875af1925050503d8060008114610da5576040519150601f19603f3d011682016040523d82523d6000602084013e610daa565b606091505b5050905080610e24577f20670ef4ff6910e98e7c43650896cc0feeab168b4ca974d0748d31c42706a1e9604051610de0906127b4565b60405180910390a17f2c78221d853bf45521bf53ad2802eb4470185a3cad34373f42e4639a8fdeb19782604051610e179190612820565b60405180910390a1610ecd565b8a600001548b6001015403610e95576000803373ffffffffffffffffffffffffffffffffffffffff1673ffffffffffffffffffffffffffffffffffffffff1681526020019081526020016000206000808201600090556001820160009055600282016000610e929190611315565b50505b7f2c78221d853bf45521bf53ad2802eb4470185a3cad34373f42e4639a8fdeb19782604051610ec4919061289a565b60405180910390a15b505b50505050505050505050505050565b7f20670ef4ff6910e98e7c43650896cc0feeab168b4ca974d0748d31c42706a1e9604051610f0b90612914565b60405180910390a160008060003373ffffffffffffffffffffffffffffffffffffffff1673ffffffffffffffffffffffffffffffffffffffff16815260200190815260200160002090506000816000015411610f9c576040517f08c379a0000000000000000000000000000000000000000000000000000000008152600401610f9390611e3f565b60405180910390fd5b6000816002018054905011610fe6576040517f08c379a0000000000000000000000000000000000000000000000000000000008152600401610fdd90611f25565b60405180910390fd5b6000805b826002018054905081101561104f5782600201818154811061100f5761100e61190f565b5b906000526020600020906002020160010160009054906101000a900460ff161561104257818061103e90611f74565b9250505b8080600101915050610fea565b507f2c78221d853bf45521bf53ad2802eb4470185a3cad34373f42e4639a8fdeb1978160405161107f9190612008565b60405180910390a1600082600201805490508284600001546110a19190612036565b6110ab91906120a7565b905060008360010154826110bf91906120d8565b90507f2c78221d853bf45521bf53ad2802eb4470185a3cad34373f42e4639a8fdeb197816040516110f09190612158565b60405180910390a16000811161113b576040517f08c379a0000000000000000000000000000000000000000000000000000000008152600401611132906121d2565b60405180910390fd5b8084600101600082825461114f9190612682565b9250508190555060003373ffffffffffffffffffffffffffffffffffffffff168260405161117c906126e7565b60006040518083038185875af1925050503d80600081146111b9576040519150601f19603f3d011682016040523d82523d6000602084013e6111be565b606091505b5050905080611202576040517f08c379a00000000000000000000000000000000000000000000000000000000081526004016111f990612748565b60405180910390fd5b8460000154856001015403611273576000803373ffffffffffffffffffffffffffffffffffffffff1673ffffffffffffffffffffffffffffffffffffffff16815260200190815260200160002060008082016000905560018201600090556002820160006112709190611315565b50505b3373ffffffffffffffffffffffffffffffffffffffff167f92ccf450a286a957af52509bc1c9939d1a6a481783e142e41e2499f0bb66ebc68360006040516112bc92919061296f565b60405180910390a25050505050565b600260009054906101000a900473ffffffffffffffffffffffffffffffffffffffff1681565b60006020528060005260406000206000915090508060000154908060010154905082565b50805460008255600202906000526020600020908101906113369190611339565b50565b5b80821115611368576000808201600090556001820160006101000a81549060ff02191690555060020161133a565b5090565b6000604051905090565b600080fd5b600080fd5b600073ffffffffffffffffffffffffffffffffffffffff82169050919050565b60006113ab82611380565b9050919050565b6113bb816113a0565b81146113c657600080fd5b50565b6000813590506113d8816113b2565b92915050565b6000819050919050565b6113f1816113de565b81146113fc57600080fd5b50565b60008135905061140e816113e8565b92915050565b60008115159050919050565b61142981611414565b811461143457600080fd5b50565b60008135905061144681611420565b92915050565b60008060006060848603121561146557611464611376565b5b6000611473868287016113c9565b9350506020611484868287016113ff565b925050604061149586828701611437565b9150509250925092565b6000819050919050565b6114b28161149f565b82525050565b60006020820190506114cd60008301846114a9565b92915050565b600080fd5b6000601f19601f8301169050919050565b7f4e487b7100000000000000000000000000000000000000000000000000000000600052604160045260246000fd5b611521826114d8565b810181811067ffffffffffffffff821117156115405761153f6114e9565b5b80604052505050565b600061155361136c565b905061155f8282611518565b919050565b600067ffffffffffffffff82111561157f5761157e6114e9565b5b602082029050602081019050919050565b600080fd5b60006115a86115a384611564565b611549565b905080838252602082019050602084028301858111156115cb576115ca611590565b5b835b818110156115f457806115e088826113ff565b8452602084019350506020810190506115cd565b5050509392505050565b600082601f830112611613576116126114d3565b5b8135611623848260208601611595565b91505092915050565b60006020828403121561164257611641611376565b5b600082013567ffffffffffffffff8111156116605761165f61137b565b5b61166c848285016115fe565b91505092915050565b61167e816113a0565b82525050565b60006020820190506116996000830184611675565b92915050565b600080fd5b60008083601f8401126116ba576116b96114d3565b5b8235905067ffffffffffffffff8111156116d7576116d661169f565b5b6020830191508360208202830111156116f3576116f2611590565b5b9250929050565b6000806020838503121561171157611710611376565b5b600083013567ffffffffffffffff81111561172f5761172e61137b565b5b61173b858286016116a4565b92509250509250929050565b6000819050919050565b600061176c61176761176284611380565b611747565b611380565b9050919050565b600061177e82611751565b9050919050565b600061179082611773565b9050919050565b6117a081611785565b82525050565b60006020820190506117bb6000830184611797565b92915050565b6000602082840312156117d7576117d6611376565b5b60006117e5848285016113c9565b91505092915050565b6117f7816113de565b82525050565b600060408201905061181260008301856117ee565b61181f60208301846117ee565b9392505050565b600082825260208201905092915050565b7f4f6e6c79206f7261636c652063616e206d61726b20676f616c73000000000000600082015250565b600061186d601a83611826565b915061187882611837565b602082019050919050565b6000602082019050818103600083015261189c81611860565b9050919050565b7f496e76616c696420676f616c20696e6465780000000000000000000000000000600082015250565b60006118d9601283611826565b91506118e4826118a3565b602082019050919050565b60006020820190508181036000830152611908816118cc565b9050919050565b7f4e487b7100000000000000000000000000000000000000000000000000000000600052603260045260246000fd5b7f416c7265616479206d61726b6564000000000000000000000000000000000000600082015250565b6000611974600e83611826565b915061197f8261193e565b602082019050919050565b600060208201905081810360008301526119a381611967565b9050919050565b6119b381611414565b82525050565b60006040820190506119ce60008301856117ee565b6119db60208301846119aa565b9392505050565b7f53656e6420484241520000000000000000000000000000000000000000000000600082015250565b6000611a18600983611826565b9150611a23826119e2565b602082019050919050565b60006020820190508181036000830152611a4781611a0b565b9050919050565b7f416c7265616479206465706f7369746564000000000000000000000000000000600082015250565b6000611a84601183611826565b9150611a8f82611a4e565b602082019050919050565b60006020820190508181036000830152611ab381611a77565b9050919050565b7f456e746572656420757064617465416e64576974686472617700000000000000600082015250565b6000611af0601983611826565b9150611afb82611aba565b602082019050919050565b60006020820190508181036000830152611b1f81611ae3565b9050919050565b600082825260208201905092915050565b6000819050919050565b600082825260208201905092915050565b82818337600083830152505050565b6000611b6d8385611b41565b9350611b7a838584611b52565b611b83836114d8565b840190509392505050565b6000611b9b848484611b61565b90509392505050565b600080fd5b600080fd5b600080fd5b60008083356001602003843603038112611bd057611bcf611bae565b5b83810192508235915060208301925067ffffffffffffffff821115611bf857611bf7611ba4565b5b600182023603831315611c0e57611c0d611ba9565b5b509250929050565b6000602082019050919050565b6000611c2f8385611b26565b935083602084028501611c4184611b37565b8060005b87811015611c87578484038952611c5c8284611bb3565b611c67868284611b8e565b9550611c7284611c16565b935060208b019a505050600181019050611c45565b50829750879450505050509392505050565b60006020820190508181036000830152611cb4818486611c23565b90509392505050565b600081519050611ccc816113e8565b92915050565b600060208284031215611ce857611ce7611376565b5b6000611cf684828501611cbd565b91505092915050565b7f5079746820757064617465206665650000000000000000000000000000000000600082015250565b6000611d35600f83611826565b9150611d4082611cff565b602082019050919050565b60006040820190508181036000830152611d6481611d28565b9050611d7360208301846117ee565b92915050565b7f507269636520757064617465206461746120636f756e74000000000000000000600082015250565b6000611daf601783611826565b9150611dba82611d79565b602082019050919050565b60006040820190508181036000830152611dde81611da2565b9050611ded60208301846117ee565b92915050565b7f4e6f206465706f73697400000000000000000000000000000000000000000000600082015250565b6000611e29600a83611826565b9150611e3482611df3565b602082019050919050565b60006020820190508181036000830152611e5881611e1c565b9050919050565b7f4465706f73697420616d6f756e74000000000000000000000000000000000000600082015250565b6000611e95600e83611826565b9150611ea082611e5f565b602082019050919050565b60006040820190508181036000830152611ec481611e88565b9050611ed360208301846117ee565b92915050565b7f4e6f20676f616c7320636f6e6669677572656400000000000000000000000000600082015250565b6000611f0f601383611826565b9150611f1a82611ed9565b602082019050919050565b60006020820190508181036000830152611f3e81611f02565b9050919050565b7f4e487b7100000000000000000000000000000000000000000000000000000000600052601160045260246000fd5b6000611f7f826113de565b91507fffffffffffffffffffffffffffffffffffffffffffffffffffffffffffffffff8203611fb157611fb0611f45565b5b600182019050919050565b7f416368696576656420676f616c73000000000000000000000000000000000000600082015250565b6000611ff2600e83611826565b9150611ffd82611fbc565b602082019050919050565b6000604082019050818103600083015261202181611fe5565b905061203060208301846117ee565b92915050565b6000612041826113de565b915061204c836113de565b925082820261205a816113de565b9150828204841483151761207157612070611f45565b5b5092915050565b7f4e487b7100000000000000000000000000000000000000000000000000000000600052601260045260246000fd5b60006120b2826113de565b91506120bd836113de565b9250826120cd576120cc612078565b5b828204905092915050565b60006120e3826113de565b91506120ee836113de565b925082820390508181111561210657612105611f45565b5b92915050565b7f417661696c61626c6520666f72207769746864726177616c0000000000000000600082015250565b6000612142601883611826565b915061214d8261210c565b602082019050919050565b6000604082019050818103600083015261217181612135565b905061218060208301846117ee565b92915050565b7f4e6f7468696e6720746f20776974686472617700000000000000000000000000600082015250565b60006121bc601383611826565b91506121c782612186565b602082019050919050565b600060208201905081810360008301526121eb816121af565b9050919050565b600080fd5b60008160070b9050919050565b61220d816121f7565b811461221857600080fd5b50565b60008151905061222a81612204565b92915050565b600067ffffffffffffffff82169050919050565b61224d81612230565b811461225857600080fd5b50565b60008151905061226a81612244565b92915050565b60008160030b9050919050565b61228681612270565b811461229157600080fd5b50565b6000815190506122a38161227d565b92915050565b6000608082840312156122bf576122be6121f2565b5b6122c96080611549565b905060006122d98482850161221b565b60008301525060206122ed8482850161225b565b602083015250604061230184828501612294565b604083015250606061231584828501611cbd565b60608301525092915050565b60006080828403121561233757612336611376565b5b6000612345848285016122a9565b91505092915050565b7f5261772070726963650000000000000000000000000000000000000000000000600082015250565b6000612384600983611826565b915061238f8261234e565b602082019050919050565b600060408201905081810360008301526123b381612377565b90506123c260208301846117ee565b92915050565b7f4578706f00000000000000000000000000000000000000000000000000000000600082015250565b60006123fe600483611826565b9150612409826123c8565b602082019050919050565b6000604082019050818103600083015261242d816123f1565b905061243c60208301846117ee565b92915050565b600061244d82612270565b91507fffffffffffffffffffffffffffffffffffffffffffffffffffffffff80000000820361247f5761247e611f45565b5b816000039050919050565b60008160011c9050919050565b6000808291508390505b60018511156124e1578086048111156124bd576124bc611f45565b5b60018516156124cc5780820291505b80810290506124da8561248a565b94506124a1565b94509492505050565b6000826124fa57600190506125b6565b8161250857600090506125b6565b816001811461251e576002811461252857612557565b60019150506125b6565b60ff84111561253a57612539611f45565b5b8360020a91508482111561255157612550611f45565b5b506125b6565b5060208310610133831016604e8410600b841016171561258c5782820a90508381111561258757612586611f45565b5b6125b6565b6125998484846001612497565b925090508184048111156125b0576125af611f45565b5b81810290505b9392505050565b60006125c8826113de565b91506125d3836113de565b92506126007fffffffffffffffffffffffffffffffffffffffffffffffffffffffffffffffff84846124ea565b905092915050565b7f5553442076616c75650000000000000000000000000000000000000000000000600082015250565b600061263e600983611826565b915061264982612608565b602082019050919050565b6000604082019050818103600083015261266d81612631565b905061267c60208301846117ee565b92915050565b600061268d826113de565b9150612698836113de565b92508282019050808211156126b0576126af611f45565b5b92915050565b600081905092915050565b50565b60006126d16000836126b6565b91506126dc826126c1565b600082019050919050565b60006126f2826126c4565b9150819050919050565b7f5769746864726177616c207472616e73666572206661696c6564000000000000600082015250565b6000612732601a83611826565b915061273d826126fc565b602082019050919050565b6000602082019050818103600083015261276181612725565b9050919050565b7f526566756e64206661696c656400000000000000000000000000000000000000600082015250565b600061279e600d83611826565b91506127a982612768565b602082019050919050565b600060208201905081810360008301526127cd81612791565b9050919050565b7f526566756e6420616d6f756e7400000000000000000000000000000000000000600082015250565b600061280a600d83611826565b9150612815826127d4565b602082019050919050565b60006040820190508181036000830152612839816127fd565b905061284860208301846117ee565b92915050565b7f526566756e646564206578636573732066656500000000000000000000000000600082015250565b6000612884601383611826565b915061288f8261284e565b602082019050919050565b600060408201905081810360008301526128b381612877565b90506128c260208301846117ee565b92915050565b7f456e7465726564207769746864726177576974686f75744f7261636c65000000600082015250565b60006128fe601d83611826565b9150612909826128c8565b602082019050919050565b6000602082019050818103600083015261292d816128f1565b9050919050565b6000819050919050565b600061295961295461294f84612934565b611747565b6113de565b9050919050565b6129698161293e565b82525050565b600060408201905061298460008301856117ee565b6129916020830184612960565b939250505056fea26469706673582212200ffa12b11ae185b641d26ce61306a52a528c99a7374bb4d183038bbc52ccf2d064736f6c63430008180033",
  "linkReferences": {},
  "deployedLinkReferences": {}
}