{
  "_format": "hh-sol-artifact-1",
  "contractName": "StepGoalEscrow",
  "sourceName": "contracts/StepGoalEscrow.sol",
  "abi": [
    {
      "inputs": [
        {
          "internalType": "address",
          "name": "_oracle",
          "type": "address"
        },
        {
          "internalType": "address",
          "name": "_pyth",
          "type": "address"
        },
        {
          "internalType": "bytes32",
          "name": "_hbarUsdPriceId",
          "type": "bytes32"
        }
      ],
      "stateMutability": "nonpayable",
      "type": "constructor"
    },
    {
      "anonymous": false,
      "inputs": [
        {
          "indexed": false,
          "internalType": "string",
          "name": "message",
          "type": "string"
        }
      ],
      "name": "DebugString",
      "type": "event"
    },
    {
      "anonymous": false,
      "inputs": [
        {
          "indexed": false,
          "internalType": "string",
          "name": "message",
          "type": "string"
        },
        {
          "indexed": false,
          "internalType": "uint256",
          "name": "value",
          "type": "uint256"
        }
      ],
      "name": "DebugUint",
      "type": "event"
    },
    {
      "anonymous": false,
      "inputs": [
        {
          "indexed": true,
          "internalType": "address",
          "name": "user",
          "type": "address"
        },
        {
          "indexed": false,
          "internalType": "uint256",
          "name": "amount",
          "type": "uint256"
        },
        {
          "indexed": false,
          "internalType": "uint256",
          "name": "numGoals",
          "type": "uint256"
        }
      ],
      "name": "Deposited",
      "type": "event"
    },
    {
      "anonymous": false,
      "inputs": [
        {
          "indexed": true,
          "internalType": "address",
          "name": "user",
          "type": "address"
        },
        {
          "indexed": false,
          "internalType": "uint256",
          "name": "index",
          "type": "uint256"
        },
        {
          "indexed": false,
          "internalType": "bool",
          "name": "success",
          "type": "bool"
        }
      ],
      "name": "GoalMarked",
      "type": "event"
    },
    {
      "anonymous": false,
      "inputs": [
        {
          "indexed": true,
          "internalType": "address",
          "name": "user",
          "type": "address"
        },
        {
          "indexed": false,
          "internalType": "uint256",
          "name": "hbarAmount",
          "type": "uint256"
        },
        {
          "indexed": false,
          "internalType": "uint256",
          "name": "usdValue",
          "type": "uint256"
        }
      ],
      "name": "Withdrawn",
      "type": "event"
    },
    {
      "inputs": [
        {
          "internalType": "uint256[]",
          "name": "stepGoals",
          "type": "uint256[]"
        }
      ],
      "name": "deposit",
      "outputs": [],
      "stateMutability": "payable",
      "type": "function"
    },
    {
      "inputs": [
        {
          "internalType": "address",
          "name": "",
          "type": "address"
        }
      ],
      "name": "deposits",
      "outputs": [
        {
          "internalType": "uint256",
          "name": "amount",
          "type": "uint256"
        },
        {
          "internalType": "uint256",
          "name": "withdrawn",
          "type": "uint256"
        }
      ],
      "stateMutability": "view",
      "type": "function"
    },
    {
      "inputs": [],
      "name": "hbarUsdPriceId",
      "outputs": [
        {
          "internalType": "bytes32",
          "name": "",
          "type": "bytes32"
        }
      ],
      "stateMutability": "view",
      "type": "function"
    },
    {
      "inputs": [
        {
          "internalType": "address",
          "name": "user",
          "type": "address"
        },
        {
          "internalType": "uint256",
          "name": "index",
          "type": "uint256"
        },
        {
          "internalType": "bool",
          "name": "success",
          "type": "bool"
        }
      ],
      "name": "markGoal",
      "outputs": [],
      "stateMutability": "nonpayable",
      "type": "function"
    },
    {
      "inputs": [],
      "name": "oracle",
      "outputs": [
        {
          "internalType": "address",
          "name": "",
          "type": "address"
        }
      ],
      "stateMutability": "view",
      "type": "function"
    },
    {
      "inputs": [],
      "name": "pyth",
      "outputs": [
        {
          "internalType": "contract IPyth",
          "name": "",
          "type": "address"
        }
      ],
      "stateMutability": "view",
      "type": "function"
    },
    {
      "inputs": [
        {
          "internalType": "bytes[]",
          "name": "priceUpdateData",
          "type": "bytes[]"
        }
      ],
      "name": "updateAndWithdraw",
      "outputs": [],
      "stateMutability": "payable",
      "type": "function"
    },
    {
      "inputs": [],
      "name": "withdrawWithoutOracle",
      "outputs": [],
      "stateMutability": "nonpayable",
      "type": "function"
    }
  ],
  "bytecode": "0x60806040523480156200001157600080fd5b5060405162002b4438038062002b4483398181016040528101906200003791906200016e565b82600160006101000a81548173ffffffffffffffffffffffffffffffffffffffff021916908373ffffffffffffffffffffffffffffffffffffffff16021790555081600260006101000a81548173ffffffffffffffffffffffffffffffffffffffff021916908373ffffffffffffffffffffffffffffffffffffffff16021790555080600381905550505050620001ca565b600080fd5b600073ffffffffffffffffffffffffffffffffffffffff82169050919050565b6000620000fb82620000ce565b9050919050565b6200010d81620000ee565b81146200011957600080fd5b50565b6000815190506200012d8162000102565b92915050565b6000819050919050565b620001488162000133565b81146200015457600080fd5b50565b60008151905062000168816200013d565b92915050565b6000806000606084860312156200018a5762000189620000c9565b5b60006200019a868287016200011c565b9350506020620001ad868287016200011c565b9250506040620001c08682870162000157565b9150509250925092565b61296a80620001da6000396000f3fe60806040526004361061007b5760003560e01c8063bb71988e1161004e578063bb71988e1461011b578063c006c7a714610137578063f98d06f01461014e578063fc7e286d146101795761007b565b806336fc1504146100805780634a9138c6146100a9578063598b8e71146100d45780637dc0d1d0146100f0575b600080fd5b34801561008c57600080fd5b506100a760048036038101906100a29190611356565b6101b7565b005b3480156100b557600080fd5b506100be6103dc565b6040516100cb91906113c2565b60405180910390f35b6100ee60048036038101906100e99190611536565b6103e2565b005b3480156100fc57600080fd5b506101056105f8565b604051610112919061158e565b60405180910390f35b61013560048036038101906101309190611604565b61061e565b005b34801561014357600080fd5b5061014c610eb0565b005b34801561015a57600080fd5b5061016361122c565b60405161017091906116b0565b60405180910390f35b34801561018557600080fd5b506101a0600480360381019061019b91906116cb565b611252565b6040516101ae929190611707565b60405180910390f35b600160009054906101000a900473ffffffffffffffffffffffffffffffffffffffff1673ffffffffffffffffffffffffffffffffffffffff163373ffffffffffffffffffffffffffffffffffffffff1614610247576040517f08c379a000000000000000000000000000000000000000000000000000000000815260040161023e9061178d565b60405180910390fd5b60008060008573ffffffffffffffffffffffffffffffffffffffff1673ffffffffffffffffffffffffffffffffffffffff1681526020019081526020016000209050806002018054905083106102d2576040517f08c379a00000000000000000000000000000000000000000000000000000000081526004016102c9906117f9565b60405180910390fd5b8060020183815481106102e8576102e7611819565b5b906000526020600020906002020160010160009054906101000a900460ff1615610347576040517f08c379a000000000000000000000000000000000000000000000000000000000815260040161033e90611894565b60405180910390fd5b8181600201848154811061035e5761035d611819565b5b906000526020600020906002020160010160006101000a81548160ff0219169083151502179055508373ffffffffffffffffffffffffffffffffffffffff167f7c4a18ad12fd3112fe19c1245310ffe0035002bb10eaa1850a592b1318104e9084846040516103ce9291906118c3565b60405180910390a250505050565b60035481565b60003411610425576040517f08c379a000000000000000000000000000000000000000000000000000000000815260040161041c90611938565b60405180910390fd5b60008060003373ffffffffffffffffffffffffffffffffffffffff1673ffffffffffffffffffffffffffffffffffffffff16815260200190815260200160002060000154146104a9576040517f08c379a00000000000000000000000000000000000000000000000000000000081526004016104a0906119a4565b60405180910390fd5b60008060003373ffffffffffffffffffffffffffffffffffffffff1673ffffffffffffffffffffffffffffffffffffffff16815260200190815260200160002090503481600001819055506000816001018190555060005b82518110156105a25781600201604051806040016040528085848151811061052c5761052b611819565b5b602002602001015181526020016000151581525090806001815401808255809150506001900390600052602060002090600202016000909190919091506000820151816000015560208201518160010160006101000a81548160ff02191690831515021790555050508080600101915050610501565b503373ffffffffffffffffffffffffffffffffffffffff167f73a19dd210f1a7f902193214c0ee91dd35ee5b4d920cba8d519eca65a7b488ca3484516040516105ec929190611707565b60405180910390a25050565b600160009054906101000a900473ffffffffffffffffffffffffffffffffffffffff1681565b7f20670ef4ff6910e98e7c43650896cc0feeab168b4ca974d0748d31c42706a1e960405161064b90611a10565b60405180910390a16000600260009054906101000a900473ffffffffffffffffffffffffffffffffffffffff1673ffffffffffffffffffffffffffffffffffffffff1663d47eed4584846040518363ffffffff1660e01b81526004016106b2929190611ba3565b602060405180830381865afa1580156106cf573d6000803e3d6000fd5b505050506040513d601f19601f820116820180604052508101906106f39190611bdc565b90507f2c78221d853bf45521bf53ad2802eb4470185a3cad34373f42e4639a8fdeb197816040516107249190611c55565b60405180910390a18034101561076f576040517f08c379a000000000000000000000000000000000000000000000000000000000815260040161076690611cf5565b60405180910390fd5b600260009054906101000a900473ffffffffffffffffffffffffffffffffffffffff1673ffffffffffffffffffffffffffffffffffffffff1663ef9e5e288285856040518463ffffffff1660e01b81526004016107cd929190611ba3565b6000604051808303818588803b1580156107e657600080fd5b505af11580156107fa573d6000803e3d6000fd5b50505050507f2c78221d853bf45521bf53ad2802eb4470185a3cad34373f42e4639a8fdeb197838390506040516108319190611d61565b60405180910390a160008060003373ffffffffffffffffffffffffffffffffffffffff1673ffffffffffffffffffffffffffffffffffffffff168152602001908152602001600020905060008160000154116108c2576040517f08c379a00000000000000000000000000000000000000000000000000000000081526004016108b990611ddb565b60405180910390fd5b7f2c78221d853bf45521bf53ad2802eb4470185a3cad34373f42e4639a8fdeb19781600001546040516108f59190611e47565b60405180910390a16000816002018054905011610947576040517f08c379a000000000000000000000000000000000000000000000000000000000815260040161093e90611ec1565b60405180910390fd5b6000805b82600201805490508110156109b0578260020181815481106109705761096f611819565b5b906000526020600020906002020160010160009054906101000a900460ff16156109a357818061099f90611f10565b9250505b808060010191505061094b565b507f2c78221d853bf45521bf53ad2802eb4470185a3cad34373f42e4639a8fdeb197816040516109e09190611fa4565b60405180910390a160008260020180549050828460000154610a029190611fd2565b610a0c9190612043565b90506000836001015482610a209190612074565b90507f2c78221d853bf45521bf53ad2802eb4470185a3cad34373f42e4639a8fdeb19781604051610a5191906120f4565b60405180910390a160008111610a9c576040517f08c379a0000000000000000000000000000000000000000000000000000000008152600401610a939061216e565b60405180910390fd5b6000600260009054906101000a900473ffffffffffffffffffffffffffffffffffffffff1673ffffffffffffffffffffffffffffffffffffffff166396834ad36003546040518263ffffffff1660e01b8152600401610afb91906113c2565b608060405180830381865afa158015610b18573d6000803e3d6000fd5b505050506040513d601f19601f82011682018060405250810190610b3c91906122bd565b90507f2c78221d853bf45521bf53ad2802eb4470185a3cad34373f42e4639a8fdeb197816000015160070b604051610b749190612336565b60405180910390a17f2c78221d853bf45521bf53ad2802eb4470185a3cad34373f42e4639a8fdeb197816040015160030b604051610bb291906123b0565b60405180910390a16000816000015160070b9050600080836040015160030b12610be0578260400151610bef565b8260400151610bee906123de565b5b63ffffffff169050600081600a610c069190612559565b8386610c129190611fd2565b610c1c9190612043565b90507f2c78221d853bf45521bf53ad2802eb4470185a3cad34373f42e4639a8fdeb19781604051610c4d91906125f0565b60405180910390a184886001016000828254610c69919061261e565b9250508190555060003373ffffffffffffffffffffffffffffffffffffffff1686604051610c9690612683565b60006040518083038185875af1925050503d8060008114610cd3576040519150601f19603f3d011682016040523d82523d6000602084013e610cd8565b606091505b5050905080610d1c576040517f08c379a0000000000000000000000000000000000000000000000000000000008152600401610d13906126e4565b60405180910390fd5b3373ffffffffffffffffffffffffffffffffffffffff167f92ccf450a286a957af52509bc1c9939d1a6a481783e142e41e2499f0bb66ebc68784604051610d64929190611707565b60405180910390a260008a34610d7a9190612074565b90506000811115610ea15760003373ffffffffffffffffffffffffffffffffffffffff1682604051610dab90612683565b60006040518083038185875af1925050503d8060008114610de8576040519150601f19603f3d011682016040523d82523d6000602084013e610ded565b606091505b5050905080610e67577f20670ef4ff6910e98e7c43650896cc0feeab168b4ca974d0748d31c42706a1e9604051610e2390612750565b60405180910390a17f2c78221d853bf45521bf53ad2802eb4470185a3cad34373f42e4639a8fdeb19782604051610e5a91906127bc565b60405180910390a1610e9f565b7f2c78221d853bf45521bf53ad2802eb4470185a3cad34373f42e4639a8fdeb19782604051610e969190612836565b60405180910390a15b505b50505050505050505050505050565b7f20670ef4ff6910e98e7c43650896cc0feeab168b4ca974d0748d31c42706a1e9604051610edd906128b0565b60405180910390a160008060003373ffffffffffffffffffffffffffffffffffffffff1673ffffffffffffffffffffffffffffffffffffffff16815260200190815260200160002090506000816000015411610f6e576040517f08c379a0000000000000000000000000000000000000000000000000000000008152600401610f6590611ddb565b60405180910390fd5b6000816002018054905011610fb8576040517f08c379a0000000000000000000000000000000000000000000000000000000008152600401610faf90611ec1565b60405180910390fd5b6000805b826002018054905081101561102157826002018181548110610fe157610fe0611819565b5b906000526020600020906002020160010160009054906101000a900460ff161561101457818061101090611f10565b9250505b8080600101915050610fbc565b507f2c78221d853bf45521bf53ad2802eb4470185a3cad34373f42e4639a8fdeb197816040516110519190611fa4565b60405180910390a1600082600201805490508284600001546110739190611fd2565b61107d9190612043565b905060008360010154826110919190612074565b90507f2c78221d853bf45521bf53ad2802eb4470185a3cad34373f42e4639a8fdeb197816040516110c291906120f4565b60405180910390a16000811161110d576040517f08c379a00000000000000000000000000000000000000000000000000000000081526004016111049061216e565b60405180910390fd5b80846001016000828254611121919061261e565b9250508190555060003373ffffffffffffffffffffffffffffffffffffffff168260405161114e90612683565b60006040518083038185875af1925050503d806000811461118b576040519150601f19603f3d011682016040523d82523d6000602084013e611190565b606091505b50509050806111d4576040517f08c379a00000000000000000000000000000000000000000000000000000000081526004016111cb906126e4565b60405180910390fd5b3373ffffffffffffffffffffffffffffffffffffffff167f92ccf450a286a957af52509bc1c9939d1a6a481783e142e41e2499f0bb66ebc683600060405161121d92919061290b565b60405180910390a25050505050565b600260009054906101000a900473ffffffffffffffffffffffffffffffffffffffff1681565b60006020528060005260406000206000915090508060000154908060010154905082565b6000604051905090565b600080fd5b600080fd5b600073ffffffffffffffffffffffffffffffffffffffff82169050919050565b60006112b58261128a565b9050919050565b6112c5816112aa565b81146112d057600080fd5b50565b6000813590506112e2816112bc565b92915050565b6000819050919050565b6112fb816112e8565b811461130657600080fd5b50565b600081359050611318816112f2565b92915050565b60008115159050919050565b6113338161131e565b811461133e57600080fd5b50565b6000813590506113508161132a565b92915050565b60008060006060848603121561136f5761136e611280565b5b600061137d868287016112d3565b935050602061138e86828701611309565b925050604061139f86828701611341565b9150509250925092565b6000819050919050565b6113bc816113a9565b82525050565b60006020820190506113d760008301846113b3565b92915050565b600080fd5b6000601f19601f8301169050919050565b7f4e487b7100000000000000000000000000000000000000000000000000000000600052604160045260246000fd5b61142b826113e2565b810181811067ffffffffffffffff8211171561144a576114496113f3565b5b80604052505050565b600061145d611276565b90506114698282611422565b919050565b600067ffffffffffffffff821115611489576114886113f3565b5b602082029050602081019050919050565b600080fd5b60006114b26114ad8461146e565b611453565b905080838252602082019050602084028301858111156114d5576114d461149a565b5b835b818110156114fe57806114ea8882611309565b8452602084019350506020810190506114d7565b5050509392505050565b600082601f83011261151d5761151c6113dd565b5b813561152d84826020860161149f565b91505092915050565b60006020828403121561154c5761154b611280565b5b600082013567ffffffffffffffff81111561156a57611569611285565b5b61157684828501611508565b91505092915050565b611588816112aa565b82525050565b60006020820190506115a3600083018461157f565b92915050565b600080fd5b60008083601f8401126115c4576115c36113dd565b5b8235905067ffffffffffffffff8111156115e1576115e06115a9565b5b6020830191508360208202830111156115fd576115fc61149a565b5b9250929050565b6000806020838503121561161b5761161a611280565b5b600083013567ffffffffffffffff81111561163957611638611285565b5b611645858286016115ae565b92509250509250929050565b6000819050919050565b600061167661167161166c8461128a565b611651565b61128a565b9050919050565b60006116888261165b565b9050919050565b600061169a8261167d565b9050919050565b6116aa8161168f565b82525050565b60006020820190506116c560008301846116a1565b92915050565b6000602082840312156116e1576116e0611280565b5b60006116ef848285016112d3565b91505092915050565b611701816112e8565b82525050565b600060408201905061171c60008301856116f8565b61172960208301846116f8565b9392505050565b600082825260208201905092915050565b7f4f6e6c79206f7261636c652063616e206d61726b20676f616c73000000000000600082015250565b6000611777601a83611730565b915061178282611741565b602082019050919050565b600060208201905081810360008301526117a68161176a565b9050919050565b7f496e76616c696420676f616c20696e6465780000000000000000000000000000600082015250565b60006117e3601283611730565b91506117ee826117ad565b602082019050919050565b60006020820190508181036000830152611812816117d6565b9050919050565b7f4e487b7100000000000000000000000000000000000000000000000000000000600052603260045260246000fd5b7f416c7265616479206d61726b6564000000000000000000000000000000000000600082015250565b600061187e600e83611730565b915061188982611848565b602082019050919050565b600060208201905081810360008301526118ad81611871565b9050919050565b6118bd8161131e565b82525050565b60006040820190506118d860008301856116f8565b6118e560208301846118b4565b9392505050565b7f53656e6420484241520000000000000000000000000000000000000000000000600082015250565b6000611922600983611730565b915061192d826118ec565b602082019050919050565b6000602082019050818103600083015261195181611915565b9050919050565b7f416c7265616479206465706f7369746564000000000000000000000000000000600082015250565b600061198e601183611730565b915061199982611958565b602082019050919050565b600060208201905081810360008301526119bd81611981565b9050919050565b7f456e746572656420757064617465416e64576974686472617700000000000000600082015250565b60006119fa601983611730565b9150611a05826119c4565b602082019050919050565b60006020820190508181036000830152611a29816119ed565b9050919050565b600082825260208201905092915050565b6000819050919050565b600082825260208201905092915050565b82818337600083830152505050565b6000611a778385611a4b565b9350611a84838584611a5c565b611a8d836113e2565b840190509392505050565b6000611aa5848484611a6b565b90509392505050565b600080fd5b600080fd5b600080fd5b60008083356001602003843603038112611ada57611ad9611ab8565b5b83810192508235915060208301925067ffffffffffffffff821115611b0257611b01611aae565b5b600182023603831315611b1857611b17611ab3565b5b509250929050565b6000602082019050919050565b6000611b398385611a30565b935083602084028501611b4b84611a41565b8060005b87811015611b91578484038952611b668284611abd565b611b71868284611a98565b9550611b7c84611b20565b935060208b019a505050600181019050611b4f565b50829750879450505050509392505050565b60006020820190508181036000830152611bbe818486611b2d565b90509392505050565b600081519050611bd6816112f2565b92915050565b600060208284031215611bf257611bf1611280565b5b6000611c0084828501611bc7565b91505092915050565b7f5079746820757064617465206665650000000000000000000000000000000000600082015250565b6000611c3f600f83611730565b9150611c4a82611c09565b602082019050919050565b60006040820190508181036000830152611c6e81611c32565b9050611c7d60208301846116f8565b92915050565b7f496e73756666696369656e742066656520666f7220707269636520757064617460008201527f6500000000000000000000000000000000000000000000000000000000000000602082015250565b6000611cdf602183611730565b9150611cea82611c83565b604082019050919050565b60006020820190508181036000830152611d0e81611cd2565b9050919050565b7f507269636520757064617465206461746120636f756e74000000000000000000600082015250565b6000611d4b601783611730565b9150611d5682611d15565b602082019050919050565b60006040820190508181036000830152611d7a81611d3e565b9050611d8960208301846116f8565b92915050565b7f4e6f206465706f73697400000000000000000000000000000000000000000000600082015250565b6000611dc5600a83611730565b9150611dd082611d8f565b602082019050919050565b60006020820190508181036000830152611df481611db8565b9050919050565b7f4465706f73697420616d6f756e74000000000000000000000000000000000000600082015250565b6000611e31600e83611730565b9150611e3c82611dfb565b602082019050919050565b60006040820190508181036000830152611e6081611e24565b9050611e6f60208301846116f8565b92915050565b7f4e6f20676f616c7320636f6e6669677572656400000000000000000000000000600082015250565b6000611eab601383611730565b9150611eb682611e75565b602082019050919050565b60006020820190508181036000830152611eda81611e9e565b9050919050565b7f4e487b7100000000000000000000000000000000000000000000000000000000600052601160045260246000fd5b6000611f1b826112e8565b91507fffffffffffffffffffffffffffffffffffffffffffffffffffffffffffffffff8203611f4d57611f4c611ee1565b5b600182019050919050565b7f416368696576656420676f616c73000000000000000000000000000000000000600082015250565b6000611f8e600e83611730565b9150611f9982611f58565b602082019050919050565b60006040820190508181036000830152611fbd81611f81565b9050611fcc60208301846116f8565b92915050565b6000611fdd826112e8565b9150611fe8836112e8565b9250828202611ff6816112e8565b9150828204841483151761200d5761200c611ee1565b5b5092915050565b7f4e487b7100000000000000000000000000000000000000000000000000000000600052601260045260246000fd5b600061204e826112e8565b9150612059836112e8565b92508261206957612068612014565b5b828204905092915050565b600061207f826112e8565b915061208a836112e8565b92508282039050818111156120a2576120a1611ee1565b5b92915050565b7f417661696c61626c6520666f72207769746864726177616c0000000000000000600082015250565b60006120de601883611730565b91506120e9826120a8565b602082019050919050565b6000604082019050818103600083015261210d816120d1565b905061211c60208301846116f8565b92915050565b7f4e6f7468696e6720746f20776974686472617700000000000000000000000000600082015250565b6000612158601383611730565b915061216382612122565b602082019050919050565b600060208201905081810360008301526121878161214b565b9050919050565b600080fd5b60008160070b9050919050565b6121a981612193565b81146121b457600080fd5b50565b6000815190506121c6816121a0565b92915050565b600067ffffffffffffffff82169050919050565b6121e9816121cc565b81146121f457600080fd5b50565b600081519050612206816121e0565b92915050565b60008160030b9050919050565b6122228161220c565b811461222d57600080fd5b50565b60008151905061223f81612219565b92915050565b60006080828403121561225b5761225a61218e565b5b6122656080611453565b90506000612275848285016121b7565b6000830152506020612289848285016121f7565b602083015250604061229d84828501612230565b60408301525060606122b184828501611bc7565b60608301525092915050565b6000608082840312156122d3576122d2611280565b5b60006122e184828501612245565b91505092915050565b7f5261772070726963650000000000000000000000000000000000000000000000600082015250565b6000612320600983611730565b915061232b826122ea565b602082019050919050565b6000604082019050818103600083015261234f81612313565b905061235e60208301846116f8565b92915050565b7f4578706f00000000000000000000000000000000000000000000000000000000600082015250565b600061239a600483611730565b91506123a582612364565b602082019050919050565b600060408201905081810360008301526123c98161238d565b90506123d860208301846116f8565b92915050565b60006123e98261220c565b91507fffffffffffffffffffffffffffffffffffffffffffffffffffffffff80000000820361241b5761241a611ee1565b5b816000039050919050565b60008160011c9050919050565b6000808291508390505b600185111561247d5780860481111561245957612458611ee1565b5b60018516156124685780820291505b808102905061247685612426565b945061243d565b94509492505050565b6000826124965760019050612552565b816124a45760009050612552565b81600181146124ba57600281146124c4576124f3565b6001915050612552565b60ff8411156124d6576124d5611ee1565b5b8360020a9150848211156124ed576124ec611ee1565b5b50612552565b5060208310610133831016604e8410600b84101617156125285782820a90508381111561252357612522611ee1565b5b612552565b6125358484846001612433565b9250905081840481111561254c5761254b611ee1565b5b81810290505b9392505050565b6000612564826112e8565b915061256f836112e8565b925061259c7fffffffffffffffffffffffffffffffffffffffffffffffffffffffffffffffff8484612486565b905092915050565b7f5553442076616c75650000000000000000000000000000000000000000000000600082015250565b60006125da600983611730565b91506125e5826125a4565b602082019050919050565b60006040820190508181036000830152612609816125cd565b905061261860208301846116f8565b92915050565b6000612629826112e8565b9150612634836112e8565b925082820190508082111561264c5761264b611ee1565b5b92915050565b600081905092915050565b50565b600061266d600083612652565b91506126788261265d565b600082019050919050565b600061268e82612660565b9150819050919050565b7f5769746864726177616c207472616e73666572206661696c6564000000000000600082015250565b60006126ce601a83611730565b91506126d982612698565b602082019050919050565b600060208201905081810360008301526126fd816126c1565b9050919050565b7f526566756e64206661696c656400000000000000000000000000000000000000600082015250565b600061273a600d83611730565b915061274582612704565b602082019050919050565b600060208201905081810360008301526127698161272d565b9050919050565b7f526566756e6420616d6f756e7400000000000000000000000000000000000000600082015250565b60006127a6600d83611730565b91506127b182612770565b602082019050919050565b600060408201905081810360008301526127d581612799565b90506127e460208301846116f8565b92915050565b7f526566756e646564206578636573732066656500000000000000000000000000600082015250565b6000612820601383611730565b915061282b826127ea565b602082019050919050565b6000604082019050818103600083015261284f81612813565b905061285e60208301846116f8565b92915050565b7f456e7465726564207769746864726177576974686f75744f7261636c65000000600082015250565b600061289a601d83611730565b91506128a582612864565b602082019050919050565b600060208201905081810360008301526128c98161288d565b9050919050565b6000819050919050565b60006128f56128f06128eb846128d0565b611651565b6112e8565b9050919050565b612905816128da565b82525050565b600060408201905061292060008301856116f8565b61292d60208301846128fc565b939250505056fea2646970667358221220f9a83d617888f2f9aae0c694157529e85dd9af7dcff88b3a8e22efec3f7719b064736f6c63430008180033",
  "linkReferences": {},
  "deployedLinkReferences": {}
}