{
  "_format": "hh-sol-artifact-1",
  "contractName": "StepGoalEscrow",
  "sourceName": "contracts/StepGoalEscrow.sol",
  "abi": [
    {
      "inputs": [
        {
          "internalType": "address",
          "name": "_oracle",
          "type": "address"
        },
        {
          "internalType": "address",
          "name": "_pyth",
          "type": "address"
        },
        {
          "internalType": "bytes32",
          "name": "_hbarUsdPriceId",
          "type": "bytes32"
        }
      ],
      "stateMutability": "nonpayable",
      "type": "constructor"
    },
    {
      "anonymous": false,
      "inputs": [
        {
          "indexed": true,
          "internalType": "address",
          "name": "user",
          "type": "address"
        },
        {
          "indexed": false,
          "internalType": "uint256",
          "name": "amount",
          "type": "uint256"
        },
        {
          "indexed": false,
          "internalType": "uint256",
          "name": "numGoals",
          "type": "uint256"
        }
      ],
      "name": "Deposited",
      "type": "event"
    },
    {
      "anonymous": false,
      "inputs": [
        {
          "indexed": true,
          "internalType": "address",
          "name": "user",
          "type": "address"
        },
        {
          "indexed": false,
          "internalType": "uint256",
          "name": "index",
          "type": "uint256"
        },
        {
          "indexed": false,
          "internalType": "bool",
          "name": "success",
          "type": "bool"
        }
      ],
      "name": "GoalMarked",
      "type": "event"
    },
    {
      "anonymous": false,
      "inputs": [
        {
          "indexed": true,
          "internalType": "address",
          "name": "user",
          "type": "address"
        },
        {
          "indexed": false,
          "internalType": "uint256",
          "name": "hbarAmount",
          "type": "uint256"
        },
        {
          "indexed": false,
          "internalType": "uint256",
          "name": "usdValue",
          "type": "uint256"
        }
      ],
      "name": "Withdrawn",
      "type": "event"
    },
    {
      "inputs": [
        {
          "internalType": "uint256[]",
          "name": "stepGoals",
          "type": "uint256[]"
        }
      ],
      "name": "deposit",
      "outputs": [],
      "stateMutability": "payable",
      "type": "function"
    },
    {
      "inputs": [
        {
          "internalType": "address",
          "name": "",
          "type": "address"
        }
      ],
      "name": "deposits",
      "outputs": [
        {
          "internalType": "uint256",
          "name": "amount",
          "type": "uint256"
        },
        {
          "internalType": "uint256",
          "name": "withdrawn",
          "type": "uint256"
        }
      ],
      "stateMutability": "view",
      "type": "function"
    },
    {
      "inputs": [],
      "name": "hbarUsdPriceId",
      "outputs": [
        {
          "internalType": "bytes32",
          "name": "",
          "type": "bytes32"
        }
      ],
      "stateMutability": "view",
      "type": "function"
    },
    {
      "inputs": [
        {
          "internalType": "address",
          "name": "user",
          "type": "address"
        },
        {
          "internalType": "uint256",
          "name": "index",
          "type": "uint256"
        },
        {
          "internalType": "bool",
          "name": "success",
          "type": "bool"
        }
      ],
      "name": "markGoal",
      "outputs": [],
      "stateMutability": "nonpayable",
      "type": "function"
    },
    {
      "inputs": [],
      "name": "oracle",
      "outputs": [
        {
          "internalType": "address",
          "name": "",
          "type": "address"
        }
      ],
      "stateMutability": "view",
      "type": "function"
    },
    {
      "inputs": [],
      "name": "pyth",
      "outputs": [
        {
          "internalType": "contract IPyth",
          "name": "",
          "type": "address"
        }
      ],
      "stateMutability": "view",
      "type": "function"
    },
    {
      "inputs": [
        {
          "internalType": "bytes[]",
          "name": "priceUpdateData",
          "type": "bytes[]"
        }
      ],
      "name": "updateAndWithdraw",
      "outputs": [],
      "stateMutability": "nonpayable",
      "type": "function"
    }
  ],
  "bytecode": "0x60806040523480156200001157600080fd5b5060405162001a9b38038062001a9b83398181016040528101906200003791906200016e565b82600160006101000a81548173ffffffffffffffffffffffffffffffffffffffff021916908373ffffffffffffffffffffffffffffffffffffffff16021790555081600260006101000a81548173ffffffffffffffffffffffffffffffffffffffff021916908373ffffffffffffffffffffffffffffffffffffffff16021790555080600381905550505050620001ca565b600080fd5b600073ffffffffffffffffffffffffffffffffffffffff82169050919050565b6000620000fb82620000ce565b9050919050565b6200010d81620000ee565b81146200011957600080fd5b50565b6000815190506200012d8162000102565b92915050565b6000819050919050565b620001488162000133565b81146200015457600080fd5b50565b60008151905062000168816200013d565b92915050565b6000806000606084860312156200018a5762000189620000c9565b5b60006200019a868287016200011c565b9350506020620001ad868287016200011c565b9250506040620001c08682870162000157565b9150509250925092565b6118c180620001da6000396000f3fe6080604052600436106100705760003560e01c80637dc0d1d01161004e5780637dc0d1d0146100e5578063bb71988e14610110578063f98d06f014610139578063fc7e286d1461016457610070565b806336fc1504146100755780634a9138c61461009e578063598b8e71146100c9575b600080fd5b34801561008157600080fd5b5061009c60048036038101906100979190610af6565b6101a2565b005b3480156100aa57600080fd5b506100b36103c7565b6040516100c09190610b62565b60405180910390f35b6100e360048036038101906100de9190610cd6565b6103cd565b005b3480156100f157600080fd5b506100fa6105e3565b6040516101079190610d2e565b60405180910390f35b34801561011c57600080fd5b5061013760048036038101906101329190610da4565b610609565b005b34801561014557600080fd5b5061014e6109cc565b60405161015b9190610e50565b60405180910390f35b34801561017057600080fd5b5061018b60048036038101906101869190610e6b565b6109f2565b604051610199929190610ea7565b60405180910390f35b600160009054906101000a900473ffffffffffffffffffffffffffffffffffffffff1673ffffffffffffffffffffffffffffffffffffffff163373ffffffffffffffffffffffffffffffffffffffff1614610232576040517f08c379a000000000000000000000000000000000000000000000000000000000815260040161022990610f2d565b60405180910390fd5b60008060008573ffffffffffffffffffffffffffffffffffffffff1673ffffffffffffffffffffffffffffffffffffffff1681526020019081526020016000209050806002018054905083106102bd576040517f08c379a00000000000000000000000000000000000000000000000000000000081526004016102b490610f99565b60405180910390fd5b8060020183815481106102d3576102d2610fb9565b5b906000526020600020906002020160010160009054906101000a900460ff1615610332576040517f08c379a000000000000000000000000000000000000000000000000000000000815260040161032990611034565b60405180910390fd5b8181600201848154811061034957610348610fb9565b5b906000526020600020906002020160010160006101000a81548160ff0219169083151502179055508373ffffffffffffffffffffffffffffffffffffffff167f7c4a18ad12fd3112fe19c1245310ffe0035002bb10eaa1850a592b1318104e9084846040516103b9929190611063565b60405180910390a250505050565b60035481565b60003411610410576040517f08c379a0000000000000000000000000000000000000000000000000000000008152600401610407906110d8565b60405180910390fd5b60008060003373ffffffffffffffffffffffffffffffffffffffff1673ffffffffffffffffffffffffffffffffffffffff1681526020019081526020016000206000015414610494576040517f08c379a000000000000000000000000000000000000000000000000000000000815260040161048b90611144565b60405180910390fd5b60008060003373ffffffffffffffffffffffffffffffffffffffff1673ffffffffffffffffffffffffffffffffffffffff16815260200190815260200160002090503481600001819055506000816001018190555060005b825181101561058d5781600201604051806040016040528085848151811061051757610516610fb9565b5b602002602001015181526020016000151581525090806001815401808255809150506001900390600052602060002090600202016000909190919091506000820151816000015560208201518160010160006101000a81548160ff021916908315150217905550505080806001019150506104ec565b503373ffffffffffffffffffffffffffffffffffffffff167f73a19dd210f1a7f902193214c0ee91dd35ee5b4d920cba8d519eca65a7b488ca3484516040516105d7929190610ea7565b60405180910390a25050565b600160009054906101000a900473ffffffffffffffffffffffffffffffffffffffff1681565b600260009054906101000a900473ffffffffffffffffffffffffffffffffffffffff1673ffffffffffffffffffffffffffffffffffffffff1663ef9e5e2883836040518363ffffffff1660e01b81526004016106669291906112d7565b600060405180830381600087803b15801561068057600080fd5b505af1158015610694573d6000803e3d6000fd5b5050505060008060003373ffffffffffffffffffffffffffffffffffffffff1673ffffffffffffffffffffffffffffffffffffffff16815260200190815260200160002090506000816000015411610721576040517f08c379a000000000000000000000000000000000000000000000000000000000815260040161071890611347565b60405180910390fd5b6000805b826002018054905081101561078a5782600201818154811061074a57610749610fb9565b5b906000526020600020906002020160010160009054906101000a900460ff161561077d57818061077990611396565b9250505b8080600101915050610725565b50600082600201805490508284600001546107a591906113de565b6107af919061144f565b905060008360010154826107c39190611480565b905060008111610808576040517f08c379a00000000000000000000000000000000000000000000000000000000081526004016107ff90611500565b60405180910390fd5b6000600260009054906101000a900473ffffffffffffffffffffffffffffffffffffffff1673ffffffffffffffffffffffffffffffffffffffff166396834ad36003546040518263ffffffff1660e01b81526004016108679190610b62565b608060405180830381865afa158015610884573d6000803e3d6000fd5b505050506040513d601f19601f820116820180604052508101906108a89190611664565b90506000816000015160070b9050600080836040015160030b126108d05782604001516108df565b82604001516108de90611691565b5b63ffffffff169050600081600a6108f6919061180c565b838661090291906113de565b61090c919061144f565b9050848860010160008282546109229190611857565b925050819055503373ffffffffffffffffffffffffffffffffffffffff166108fc869081150290604051600060405180830381858888f1935050505015801561096f573d6000803e3d6000fd5b503373ffffffffffffffffffffffffffffffffffffffff167f92ccf450a286a957af52509bc1c9939d1a6a481783e142e41e2499f0bb66ebc686836040516109b8929190610ea7565b60405180910390a250505050505050505050565b600260009054906101000a900473ffffffffffffffffffffffffffffffffffffffff1681565b60006020528060005260406000206000915090508060000154908060010154905082565b6000604051905090565b600080fd5b600080fd5b600073ffffffffffffffffffffffffffffffffffffffff82169050919050565b6000610a5582610a2a565b9050919050565b610a6581610a4a565b8114610a7057600080fd5b50565b600081359050610a8281610a5c565b92915050565b6000819050919050565b610a9b81610a88565b8114610aa657600080fd5b50565b600081359050610ab881610a92565b92915050565b60008115159050919050565b610ad381610abe565b8114610ade57600080fd5b50565b600081359050610af081610aca565b92915050565b600080600060608486031215610b0f57610b0e610a20565b5b6000610b1d86828701610a73565b9350506020610b2e86828701610aa9565b9250506040610b3f86828701610ae1565b9150509250925092565b6000819050919050565b610b5c81610b49565b82525050565b6000602082019050610b776000830184610b53565b92915050565b600080fd5b6000601f19601f8301169050919050565b7f4e487b7100000000000000000000000000000000000000000000000000000000600052604160045260246000fd5b610bcb82610b82565b810181811067ffffffffffffffff82111715610bea57610be9610b93565b5b80604052505050565b6000610bfd610a16565b9050610c098282610bc2565b919050565b600067ffffffffffffffff821115610c2957610c28610b93565b5b602082029050602081019050919050565b600080fd5b6000610c52610c4d84610c0e565b610bf3565b90508083825260208201905060208402830185811115610c7557610c74610c3a565b5b835b81811015610c9e5780610c8a8882610aa9565b845260208401935050602081019050610c77565b5050509392505050565b600082601f830112610cbd57610cbc610b7d565b5b8135610ccd848260208601610c3f565b91505092915050565b600060208284031215610cec57610ceb610a20565b5b600082013567ffffffffffffffff811115610d0a57610d09610a25565b5b610d1684828501610ca8565b91505092915050565b610d2881610a4a565b82525050565b6000602082019050610d436000830184610d1f565b92915050565b600080fd5b60008083601f840112610d6457610d63610b7d565b5b8235905067ffffffffffffffff811115610d8157610d80610d49565b5b602083019150836020820283011115610d9d57610d9c610c3a565b5b9250929050565b60008060208385031215610dbb57610dba610a20565b5b600083013567ffffffffffffffff811115610dd957610dd8610a25565b5b610de585828601610d4e565b92509250509250929050565b6000819050919050565b6000610e16610e11610e0c84610a2a565b610df1565b610a2a565b9050919050565b6000610e2882610dfb565b9050919050565b6000610e3a82610e1d565b9050919050565b610e4a81610e2f565b82525050565b6000602082019050610e656000830184610e41565b92915050565b600060208284031215610e8157610e80610a20565b5b6000610e8f84828501610a73565b91505092915050565b610ea181610a88565b82525050565b6000604082019050610ebc6000830185610e98565b610ec96020830184610e98565b9392505050565b600082825260208201905092915050565b7f4f6e6c79206f7261636c652063616e206d61726b20676f616c73000000000000600082015250565b6000610f17601a83610ed0565b9150610f2282610ee1565b602082019050919050565b60006020820190508181036000830152610f4681610f0a565b9050919050565b7f496e76616c696420676f616c20696e6465780000000000000000000000000000600082015250565b6000610f83601283610ed0565b9150610f8e82610f4d565b602082019050919050565b60006020820190508181036000830152610fb281610f76565b9050919050565b7f4e487b7100000000000000000000000000000000000000000000000000000000600052603260045260246000fd5b7f416c7265616479206d61726b6564000000000000000000000000000000000000600082015250565b600061101e600e83610ed0565b915061102982610fe8565b602082019050919050565b6000602082019050818103600083015261104d81611011565b9050919050565b61105d81610abe565b82525050565b60006040820190506110786000830185610e98565b6110856020830184611054565b9392505050565b7f53656e6420484241520000000000000000000000000000000000000000000000600082015250565b60006110c2600983610ed0565b91506110cd8261108c565b602082019050919050565b600060208201905081810360008301526110f1816110b5565b9050919050565b7f416c7265616479206465706f7369746564000000000000000000000000000000600082015250565b600061112e601183610ed0565b9150611139826110f8565b602082019050919050565b6000602082019050818103600083015261115d81611121565b9050919050565b600082825260208201905092915050565b6000819050919050565b600082825260208201905092915050565b82818337600083830152505050565b60006111ab838561117f565b93506111b8838584611190565b6111c183610b82565b840190509392505050565b60006111d984848461119f565b90509392505050565b600080fd5b600080fd5b600080fd5b6000808335600160200384360303811261120e5761120d6111ec565b5b83810192508235915060208301925067ffffffffffffffff821115611236576112356111e2565b5b60018202360383131561124c5761124b6111e7565b5b509250929050565b6000602082019050919050565b600061126d8385611164565b93508360208402850161127f84611175565b8060005b878110156112c557848403895261129a82846111f1565b6112a58682846111cc565b95506112b084611254565b935060208b019a505050600181019050611283565b50829750879450505050509392505050565b600060208201905081810360008301526112f2818486611261565b90509392505050565b7f4e6f206465706f73697400000000000000000000000000000000000000000000600082015250565b6000611331600a83610ed0565b915061133c826112fb565b602082019050919050565b6000602082019050818103600083015261136081611324565b9050919050565b7f4e487b7100000000000000000000000000000000000000000000000000000000600052601160045260246000fd5b60006113a182610a88565b91507fffffffffffffffffffffffffffffffffffffffffffffffffffffffffffffffff82036113d3576113d2611367565b5b600182019050919050565b60006113e982610a88565b91506113f483610a88565b925082820261140281610a88565b9150828204841483151761141957611418611367565b5b5092915050565b7f4e487b7100000000000000000000000000000000000000000000000000000000600052601260045260246000fd5b600061145a82610a88565b915061146583610a88565b92508261147557611474611420565b5b828204905092915050565b600061148b82610a88565b915061149683610a88565b92508282039050818111156114ae576114ad611367565b5b92915050565b7f4e6f7468696e6720746f20776974686472617700000000000000000000000000600082015250565b60006114ea601383610ed0565b91506114f5826114b4565b602082019050919050565b60006020820190508181036000830152611519816114dd565b9050919050565b600080fd5b60008160070b9050919050565b61153b81611525565b811461154657600080fd5b50565b60008151905061155881611532565b92915050565b600067ffffffffffffffff82169050919050565b61157b8161155e565b811461158657600080fd5b50565b60008151905061159881611572565b92915050565b60008160030b9050919050565b6115b48161159e565b81146115bf57600080fd5b50565b6000815190506115d1816115ab565b92915050565b6000815190506115e681610a92565b92915050565b60006080828403121561160257611601611520565b5b61160c6080610bf3565b9050600061161c84828501611549565b600083015250602061163084828501611589565b6020830152506040611644848285016115c2565b6040830152506060611658848285016115d7565b60608301525092915050565b60006080828403121561167a57611679610a20565b5b6000611688848285016115ec565b91505092915050565b600061169c8261159e565b91507fffffffffffffffffffffffffffffffffffffffffffffffffffffffff8000000082036116ce576116cd611367565b5b816000039050919050565b60008160011c9050919050565b6000808291508390505b60018511156117305780860481111561170c5761170b611367565b5b600185161561171b5780820291505b8081029050611729856116d9565b94506116f0565b94509492505050565b6000826117495760019050611805565b816117575760009050611805565b816001811461176d5760028114611777576117a6565b6001915050611805565b60ff84111561178957611788611367565b5b8360020a9150848211156117a05761179f611367565b5b50611805565b5060208310610133831016604e8410600b84101617156117db5782820a9050838111156117d6576117d5611367565b5b611805565b6117e884848460016116e6565b925090508184048111156117ff576117fe611367565b5b81810290505b9392505050565b600061181782610a88565b915061182283610a88565b925061184f7fffffffffffffffffffffffffffffffffffffffffffffffffffffffffffffffff8484611739565b905092915050565b600061186282610a88565b915061186d83610a88565b925082820190508082111561188557611884611367565b5b9291505056fea26469706673582212208bb6ed7a67ee860afe7a4e1996033a4083c543d62b2b18ca73607925934a483864736f6c63430008180033",
  "linkReferences": {},
  "deployedLinkReferences": {}
}